{
  "contractName": "SmartHome",
  "abi": [
    {
      "inputs": [],
      "payable": false,
      "stateMutability": "nonpayable",
      "type": "constructor"
    },
    {
      "constant": true,
      "inputs": [
        {
          "name": "a",
          "type": "string"
        },
        {
          "name": "b",
          "type": "string"
        }
      ],
      "name": "compareStrings",
      "outputs": [
        {
          "name": "",
          "type": "bool"
        }
      ],
      "payable": false,
      "stateMutability": "pure",
      "type": "function"
    },
    {
      "constant": false,
      "inputs": [
        {
          "name": "name",
          "type": "string"
        },
        {
          "name": "contactno",
          "type": "string"
        },
        {
          "name": "homeAddress",
          "type": "string"
        }
      ],
      "name": "addHome",
      "outputs": [],
      "payable": false,
      "stateMutability": "nonpayable",
      "type": "function"
    },
    {
      "constant": false,
      "inputs": [
        {
          "name": "name",
          "type": "string"
        },
        {
          "name": "contactno",
          "type": "string"
        },
        {
          "name": "device",
          "type": "string"
        }
      ],
      "name": "addInsurer",
      "outputs": [],
      "payable": false,
      "stateMutability": "nonpayable",
      "type": "function"
    },
    {
      "constant": false,
      "inputs": [
        {
          "name": "name",
          "type": "string"
        },
        {
          "name": "contactno",
          "type": "string"
        },
        {
          "name": "device",
          "type": "string"
        }
      ],
      "name": "addInvestigator",
      "outputs": [],
      "payable": false,
      "stateMutability": "nonpayable",
      "type": "function"
    },
    {
      "constant": false,
      "inputs": [
        {
          "name": "name",
          "type": "string"
        },
        {
          "name": "contactno",
          "type": "string"
        },
        {
          "name": "device",
          "type": "string"
        }
      ],
      "name": "addSupplier",
      "outputs": [],
      "payable": false,
      "stateMutability": "nonpayable",
      "type": "function"
    },
    {
      "constant": false,
      "inputs": [
        {
          "name": "insurer",
          "type": "address"
        },
        {
          "name": "investigator",
          "type": "address"
        },
        {
          "name": "supplier",
          "type": "address"
        },
        {
          "name": "area",
          "type": "string"
        },
        {
          "name": "device",
          "type": "string"
        }
      ],
      "name": "addDamage",
      "outputs": [],
      "payable": false,
      "stateMutability": "nonpayable",
      "type": "function"
    },
    {
      "constant": true,
      "inputs": [],
      "name": "getHome",
      "outputs": [
        {
          "name": "",
          "type": "string"
        },
        {
          "name": "",
          "type": "string"
        },
        {
          "name": "",
          "type": "string"
        },
        {
          "name": "",
          "type": "uint256"
        },
        {
          "name": "",
          "type": "uint256[]"
        }
      ],
      "payable": false,
      "stateMutability": "view",
      "type": "function"
    },
    {
      "constant": true,
      "inputs": [],
      "name": "getAllDamage",
      "outputs": [
        {
          "name": "",
          "type": "uint256[]"
        }
      ],
      "payable": false,
      "stateMutability": "view",
      "type": "function"
    },
    {
      "constant": true,
      "inputs": [],
      "name": "getDamagesInsurer",
      "outputs": [
        {
          "name": "",
          "type": "uint256[]"
        }
      ],
      "payable": false,
      "stateMutability": "view",
      "type": "function"
    },
    {
      "constant": true,
      "inputs": [],
      "name": "getDamagesInvestigator",
      "outputs": [
        {
          "name": "",
          "type": "uint256[]"
        }
      ],
      "payable": false,
      "stateMutability": "view",
      "type": "function"
    },
    {
      "constant": true,
      "inputs": [],
      "name": "getDamagesSupplier",
      "outputs": [
        {
          "name": "",
          "type": "uint256[]"
        }
      ],
      "payable": false,
      "stateMutability": "view",
      "type": "function"
    },
    {
      "constant": true,
      "inputs": [
        {
          "name": "damageid",
          "type": "uint256"
        }
      ],
      "name": "getStatus",
      "outputs": [
        {
          "name": "",
          "type": "uint8"
        }
      ],
      "payable": false,
      "stateMutability": "view",
      "type": "function"
    },
    {
      "constant": true,
      "inputs": [
        {
          "name": "damageid",
          "type": "uint256"
        }
      ],
      "name": "getDamageDetails",
      "outputs": [
        {
          "name": "",
          "type": "address"
        },
        {
          "name": "",
          "type": "address"
        },
        {
          "name": "",
          "type": "address"
        },
        {
          "name": "",
          "type": "address"
        },
        {
          "name": "",
          "type": "string"
        },
        {
          "name": "",
          "type": "string"
        },
        {
          "name": "",
          "type": "uint8"
        }
      ],
      "payable": false,
      "stateMutability": "view",
      "type": "function"
    },
    {
      "constant": false,
      "inputs": [
        {
          "name": "damageid",
          "type": "uint256"
        }
      ],
      "name": "passDamagetoInves",
      "outputs": [],
      "payable": false,
      "stateMutability": "nonpayable",
      "type": "function"
    },
    {
      "constant": false,
      "inputs": [
        {
          "name": "damageid",
          "type": "uint256"
        }
      ],
      "name": "passDamagetoSupp",
      "outputs": [],
      "payable": false,
      "stateMutability": "nonpayable",
      "type": "function"
    },
    {
      "constant": false,
      "inputs": [
        {
          "name": "damageid",
          "type": "uint256"
        }
      ],
      "name": "passDamagetoInsurer",
      "outputs": [],
      "payable": false,
      "stateMutability": "nonpayable",
      "type": "function"
    },
    {
      "constant": false,
      "inputs": [
        {
          "name": "damageid",
          "type": "uint256"
        }
      ],
      "name": "statusUpdateInsur",
      "outputs": [],
      "payable": false,
      "stateMutability": "nonpayable",
      "type": "function"
    },
    {
      "constant": false,
      "inputs": [
        {
          "name": "cost",
          "type": "string"
        },
        {
          "name": "damageid",
          "type": "uint256"
        }
      ],
      "name": "addCost",
      "outputs": [],
      "payable": false,
      "stateMutability": "nonpayable",
      "type": "function"
    },
    {
      "constant": true,
      "inputs": [
        {
          "name": "damageid",
          "type": "uint256"
        }
      ],
      "name": "getCost",
      "outputs": [
        {
          "name": "",
          "type": "string"
        }
      ],
      "payable": false,
      "stateMutability": "view",
      "type": "function"
    }
  ],
  "bytecode": "0x6080604052600060075534801561001557600080fd5b506000600781905550613a538061002d6000396000f3fe608060405260043610610107576000357c0100000000000000000000000000000000000000000000000000000000900463ffffffff1680630221b28e1461010c57806303eb42c2146101de5780631fb6f6551461021957806329d26fa4146103d857806346f04195146104445780634f8a2abc1461063a5780635a4dd47d146106755780635c622a0e146107295780639acf6c69146107865780639e0bce9f146107c15780639e33625e146109b7578063a0cea68014610a23578063ae70000d14610c24578063af63f27114610c90578063bed34bba14610cfc578063ced7d5ad14610e73578063e6af48ad14611069578063f084cb7514611220578063fce9aa3314611416575b600080fd5b34801561011857600080fd5b506101dc6004803603604081101561012f57600080fd5b810190808035906020019064010000000081111561014c57600080fd5b82018360208201111561015e57600080fd5b8035906020019184600183028401116401000000008311171561018057600080fd5b91908080601f016020809104026020016040519081016040528093929190818152602001838380828437600081840152601f19601f82011690508083019250505050505050919291929080359060200190929190505050611451565b005b3480156101ea57600080fd5b506102176004803603602081101561020157600080fd5b8101908080359060200190929190505050611559565b005b34801561022557600080fd5b506103d6600480360360a081101561023c57600080fd5b81019080803573ffffffffffffffffffffffffffffffffffffffff169060200190929190803573ffffffffffffffffffffffffffffffffffffffff169060200190929190803573ffffffffffffffffffffffffffffffffffffffff169060200190929190803590602001906401000000008111156102b957600080fd5b8201836020820111156102cb57600080fd5b803590602001918460018302840111640100000000831117156102ed57600080fd5b91908080601f016020809104026020016040519081016040528093929190818152602001838380828437600081840152601f19601f8201169050808301925050505050505091929192908035906020019064010000000081111561035057600080fd5b82018360208201111561036257600080fd5b8035906020019184600183028401116401000000008311171561038457600080fd5b91908080601f016020809104026020016040519081016040528093929190818152602001838380828437600081840152601f19601f82011690508083019250505050505050919291929050505061166d565b005b3480156103e457600080fd5b506103ed611d74565b6040518080602001828103825283818151815260200191508051906020019060200280838360005b83811015610430578082015181840152602081019050610415565b505050509050019250505060405180910390f35b34801561045057600080fd5b506106386004803603606081101561046757600080fd5b810190808035906020019064010000000081111561048457600080fd5b82018360208201111561049657600080fd5b803590602001918460018302840111640100000000831117156104b857600080fd5b91908080601f016020809104026020016040519081016040528093929190818152602001838380828437600081840152601f19601f8201169050808301925050505050505091929192908035906020019064010000000081111561051b57600080fd5b82018360208201111561052d57600080fd5b8035906020019184600183028401116401000000008311171561054f57600080fd5b91908080601f016020809104026020016040519081016040528093929190818152602001838380828437600081840152601f19601f820116905080830192505050505050509192919290803590602001906401000000008111156105b257600080fd5b8201836020820111156105c457600080fd5b803590602001918460018302840111640100000000831117156105e657600080fd5b91908080601f016020809104026020016040519081016040528093929190818152602001838380828437600081840152601f19601f820116905080830192505050505050509192919290505050611fa6565b005b34801561064657600080fd5b506106736004803603602081101561065d57600080fd5b810190808035906020019092919050505061210b565b005b34801561068157600080fd5b506106ae6004803603602081101561069857600080fd5b81019080803590602001909291905050506122c4565b6040518080602001828103825283818151815260200191508051906020019080838360005b838110156106ee5780820151818401526020810190506106d3565b50505050905090810190601f16801561071b5780820380516001836020036101000a031916815260200191505b509250505060405180910390f35b34801561073557600080fd5b506107626004803603602081101561074c57600080fd5b81019080803590602001909291905050506125bf565b6040518082600581111561077257fe5b60ff16815260200191505060405180910390f35b34801561079257600080fd5b506107bf600480360360208110156107a957600080fd5b81019080803590602001909291905050506125ec565b005b3480156107cd57600080fd5b506109b5600480360360608110156107e457600080fd5b810190808035906020019064010000000081111561080157600080fd5b82018360208201111561081357600080fd5b8035906020019184600183028401116401000000008311171561083557600080fd5b91908080601f016020809104026020016040519081016040528093929190818152602001838380828437600081840152601f19601f8201169050808301925050505050505091929192908035906020019064010000000081111561089857600080fd5b8201836020820111156108aa57600080fd5b803590602001918460018302840111640100000000831117156108cc57600080fd5b91908080601f016020809104026020016040519081016040528093929190818152602001838380828437600081840152601f19601f8201169050808301925050505050505091929192908035906020019064010000000081111561092f57600080fd5b82018360208201111561094157600080fd5b8035906020019184600183028401116401000000008311171561096357600080fd5b91908080601f016020809104026020016040519081016040528093929190818152602001838380828437600081840152601f19601f820116905080830192505050505050509192919290505050612700565b005b3480156109c357600080fd5b506109cc612865565b6040518080602001828103825283818151815260200191508051906020019060200280838360005b83811015610a0f5780820151818401526020810190506109f4565b505050509050019250505060405180910390f35b348015610a2f57600080fd5b50610a5c60048036036020811015610a4657600080fd5b810190808035906020019092919050505061290f565b604051808873ffffffffffffffffffffffffffffffffffffffff1673ffffffffffffffffffffffffffffffffffffffff1681526020018773ffffffffffffffffffffffffffffffffffffffff1673ffffffffffffffffffffffffffffffffffffffff1681526020018673ffffffffffffffffffffffffffffffffffffffff1673ffffffffffffffffffffffffffffffffffffffff1681526020018573ffffffffffffffffffffffffffffffffffffffff1673ffffffffffffffffffffffffffffffffffffffff1681526020018060200180602001846005811115610b3c57fe5b60ff168152602001838103835286818151815260200191508051906020019080838360005b83811015610b7c578082015181840152602081019050610b61565b50505050905090810190601f168015610ba95780820380516001836020036101000a031916815260200191505b50838103825285818151815260200191508051906020019080838360005b83811015610be2578082015181840152602081019050610bc7565b50505050905090810190601f168015610c0f5780820380516001836020036101000a031916815260200191505b50995050505050505050505060405180910390f35b348015610c3057600080fd5b50610c39612b97565b6040518080602001828103825283818151815260200191508051906020019060200280838360005b83811015610c7c578082015181840152602081019050610c61565b505050509050019250505060405180910390f35b348015610c9c57600080fd5b50610ca5612dc9565b6040518080602001828103825283818151815260200191508051906020019060200280838360005b83811015610ce8578082015181840152602081019050610ccd565b505050509050019250505060405180910390f35b348015610d0857600080fd5b50610e5960048036036040811015610d1f57600080fd5b8101908080359060200190640100000000811115610d3c57600080fd5b820183602082011115610d4e57600080fd5b80359060200191846001830284011164010000000083111715610d7057600080fd5b91908080601f016020809104026020016040519081016040528093929190818152602001838380828437600081840152601f19601f82011690508083019250505050505050919291929080359060200190640100000000811115610dd357600080fd5b820183602082011115610de557600080fd5b80359060200191846001830284011164010000000083111715610e0757600080fd5b91908080601f016020809104026020016040519081016040528093929190818152602001838380828437600081840152601f19601f820116905080830192505050505050509192919290505050612ffb565b604051808215151515815260200191505060405180910390f35b348015610e7f57600080fd5b5061106760048036036060811015610e9657600080fd5b8101908080359060200190640100000000811115610eb357600080fd5b820183602082011115610ec557600080fd5b80359060200191846001830284011164010000000083111715610ee757600080fd5b91908080601f016020809104026020016040519081016040528093929190818152602001838380828437600081840152601f19601f82011690508083019250505050505050919291929080359060200190640100000000811115610f4a57600080fd5b820183602082011115610f5c57600080fd5b80359060200191846001830284011164010000000083111715610f7e57600080fd5b91908080601f016020809104026020016040519081016040528093929190818152602001838380828437600081840152601f19601f82011690508083019250505050505050919291929080359060200190640100000000811115610fe157600080fd5b820183602082011115610ff357600080fd5b8035906020019184600183028401116401000000008311171561101557600080fd5b91908080601f016020809104026020016040519081016040528093929190818152602001838380828437600081840152601f19601f8201169050808301925050505050505091929192905050506130ee565b005b34801561107557600080fd5b5061107e6132b5565b604051808060200180602001806020018681526020018060200185810385528a818151815260200191508051906020019080838360005b838110156110d05780820151818401526020810190506110b5565b50505050905090810190601f1680156110fd5780820380516001836020036101000a031916815260200191505b50858103845289818151815260200191508051906020019080838360005b8381101561113657808201518184015260208101905061111b565b50505050905090810190601f1680156111635780820380516001836020036101000a031916815260200191505b50858103835288818151815260200191508051906020019080838360005b8381101561119c578082015181840152602081019050611181565b50505050905090810190601f1680156111c95780820380516001836020036101000a031916815260200191505b50858103825286818151815260200191508051906020019060200280838360005b838110156112055780820151818401526020810190506111ea565b50505050905001995050505050505050505060405180910390f35b34801561122c57600080fd5b506114146004803603606081101561124357600080fd5b810190808035906020019064010000000081111561126057600080fd5b82018360208201111561127257600080fd5b8035906020019184600183028401116401000000008311171561129457600080fd5b91908080601f016020809104026020016040519081016040528093929190818152602001838380828437600081840152601f19601f820116905080830192505050505050509192919290803590602001906401000000008111156112f757600080fd5b82018360208201111561130957600080fd5b8035906020019184600183028401116401000000008311171561132b57600080fd5b91908080601f016020809104026020016040519081016040528093929190818152602001838380828437600081840152601f19601f8201169050808301925050505050505091929192908035906020019064010000000081111561138e57600080fd5b8201836020820111156113a057600080fd5b803590602001918460018302840111640100000000831117156113c257600080fd5b91908080601f016020809104026020016040519081016040528093929190818152602001838380828437600081840152601f19601f820116905080830192505050505050509192919290505050613709565b005b34801561142257600080fd5b5061144f6004803603602081101561143957600080fd5b810190808035906020019092919050505061386e565b005b3373ffffffffffffffffffffffffffffffffffffffff166004600083815260200190815260200160002060030160009054906101000a900473ffffffffffffffffffffffffffffffffffffffff1673ffffffffffffffffffffffffffffffffffffffff1614151561152a576040517f08c379a00000000000000000000000000000000000000000000000000000000081526004018080602001828103825260158152602001807f596f75277265206e6f7420617574686f72697a6564000000000000000000000081525060200191505060405180910390fd5b81600460008381526020019081526020016000206006019080519060200190611554929190613982565b505050565b3373ffffffffffffffffffffffffffffffffffffffff166004600083815260200190815260200160002060020160009054906101000a900473ffffffffffffffffffffffffffffffffffffffff1673ffffffffffffffffffffffffffffffffffffffff16141515611632576040517f08c379a00000000000000000000000000000000000000000000000000000000081526004018080602001828103825260108152602001807f696e76616c69642064616d61676569640000000000000000000000000000000081525060200191505060405180910390fd5b60026004600083815260200190815260200160002060070160006101000a81548160ff0219169083600581111561166557fe5b021790555050565b336000808273ffffffffffffffffffffffffffffffffffffffff1673ffffffffffffffffffffffffffffffffffffffff16815260200190815260200160002060030160009054906101000a900460ff161515611731576040517f08c379a00000000000000000000000000000000000000000000000000000000081526004018080602001828103825260138152602001807f486f6d6520646f6573206e6f742065786973740000000000000000000000000081525060200191505060405180910390fd5b85600260008273ffffffffffffffffffffffffffffffffffffffff1673ffffffffffffffffffffffffffffffffffffffff16815260200190815260200160002060010160009054906101000a900460ff1615156117f6576040517f08c379a00000000000000000000000000000000000000000000000000000000081526004018080602001828103825260168152602001807f496e737572657220646f6573206e6f742065786973740000000000000000000081525060200191505060405180910390fd5b85600860008273ffffffffffffffffffffffffffffffffffffffff1673ffffffffffffffffffffffffffffffffffffffff16815260200190815260200160002060010160009054906101000a900460ff1615156118bb576040517f08c379a000000000000000000000000000000000000000000000000000000000815260040180806020018281038252601b8152602001807f496e76657374696761746f7220646f6573206e6f74206578697374000000000081525060200191505060405180910390fd5b85600a60008273ffffffffffffffffffffffffffffffffffffffff1673ffffffffffffffffffffffffffffffffffffffff16815260200190815260200160002060020160009054906101000a900460ff161515611980576040517f08c379a00000000000000000000000000000000000000000000000000000000081526004018080602001828103825260178152602001807f537570706c69657220646f6573206e6f7420657869737400000000000000000081525060200191505060405180910390fd5b60076000815480929190600101919050555060006007549050336004600083815260200190815260200160002060000160006101000a81548173ffffffffffffffffffffffffffffffffffffffff021916908373ffffffffffffffffffffffffffffffffffffffff16021790555060006004600083815260200190815260200160002060070160006101000a81548160ff02191690836005811115611a2157fe5b0217905550896004600083815260200190815260200160002060010160006101000a81548173ffffffffffffffffffffffffffffffffffffffff021916908373ffffffffffffffffffffffffffffffffffffffff160217905550886004600083815260200190815260200160002060020160006101000a81548173ffffffffffffffffffffffffffffffffffffffff021916908373ffffffffffffffffffffffffffffffffffffffff160217905550876004600083815260200190815260200160002060030160006101000a81548173ffffffffffffffffffffffffffffffffffffffff021916908373ffffffffffffffffffffffffffffffffffffffff16021790555086600460008381526020019081526020016000206004019080519060200190611b4f929190613982565b5085600460008381526020019081526020016000206005019080519060200190611b7a929190613982565b506040805190810160405280600181526020017f2d00000000000000000000000000000000000000000000000000000000000000815250600460008381526020019081526020016000206006019080519060200190611bda929190613982565b506000803373ffffffffffffffffffffffffffffffffffffffff1673ffffffffffffffffffffffffffffffffffffffff168152602001908152602001600020600401819080600181540180825580915050906001820390600052602060002001600090919290919091505550600260008b73ffffffffffffffffffffffffffffffffffffffff1673ffffffffffffffffffffffffffffffffffffffff16815260200190815260200160002060040160008154809291906001019190505550600860008a73ffffffffffffffffffffffffffffffffffffffff1673ffffffffffffffffffffffffffffffffffffffff16815260200190815260200160002060040160008154809291906001019190505550600a60008973ffffffffffffffffffffffffffffffffffffffff1673ffffffffffffffffffffffffffffffffffffffff16815260200190815260200160002060040160008154809291906001019190505550600581908060018154018082558091505090600182039060005260206000200160009091929091909150555050505050505050505050565b606033600a60008273ffffffffffffffffffffffffffffffffffffffff1673ffffffffffffffffffffffffffffffffffffffff16815260200190815260200160002060020160009054906101000a900460ff161515611e3b576040517f08c379a00000000000000000000000000000000000000000000000000000000081526004018080602001828103825260178152602001807f537570706c69657220646f6573206e6f7420657869737400000000000000000081525060200191505060405180910390fd5b6060600a60003373ffffffffffffffffffffffffffffffffffffffff1673ffffffffffffffffffffffffffffffffffffffff16815260200190815260200160002060040154604051908082528060200260200182016040528015611eae5781602001602082028038833980820191505090505b50905060008090506000809050600090505b600580549050811015611f9c573373ffffffffffffffffffffffffffffffffffffffff1660046000600584815481101515611ef757fe5b9060005260206000200154815260200190815260200160002060030160009054906101000a900473ffffffffffffffffffffffffffffffffffffffff1673ffffffffffffffffffffffffffffffffffffffff161415611f8f57600581815481101515611f5f57fe5b90600052602060002001548383815181101515611f7857fe5b906020019060200201818152505081806001019250505b8080600101915050611ec0565b8294505050505090565b82600a60003373ffffffffffffffffffffffffffffffffffffffff1673ffffffffffffffffffffffffffffffffffffffff1681526020019081526020016000206001019080519060200190611ffc929190613982565b5081600a60003373ffffffffffffffffffffffffffffffffffffffff1673ffffffffffffffffffffffffffffffffffffffff1681526020019081526020016000206003019080519060200190612053929190613982565b5080600a60003373ffffffffffffffffffffffffffffffffffffffff1673ffffffffffffffffffffffffffffffffffffffff16815260200190815260200160002060000190805190602001906120aa929190613982565b506001600a60003373ffffffffffffffffffffffffffffffffffffffff1673ffffffffffffffffffffffffffffffffffffffff16815260200190815260200160002060020160006101000a81548160ff021916908315150217905550505050565b3373ffffffffffffffffffffffffffffffffffffffff166004600083815260200190815260200160002060010160009054906101000a900473ffffffffffffffffffffffffffffffffffffffff1673ffffffffffffffffffffffffffffffffffffffff161415156121e4576040517f08c379a00000000000000000000000000000000000000000000000000000000081526004018080602001828103825260108152602001807f696e76616c69642064616d61676569640000000000000000000000000000000081525060200191505060405180910390fd5b60006004600083815260200190815260200160002060070160009054906101000a900460ff1690506003600581111561221957fe5b81600581111561222557fe5b141561226757600480600084815260200190815260200160002060070160006101000a81548160ff0219169083600581111561225d57fe5b02179055506122c0565b6004600581111561227457fe5b81600581111561228057fe5b14156122bf5760056004600084815260200190815260200160002060070160006101000a81548160ff021916908360058111156122b957fe5b02179055505b5b5050565b60603373ffffffffffffffffffffffffffffffffffffffff166004600084815260200190815260200160002060000160009054906101000a900473ffffffffffffffffffffffffffffffffffffffff1673ffffffffffffffffffffffffffffffffffffffff16148061239757503373ffffffffffffffffffffffffffffffffffffffff166004600084815260200190815260200160002060010160009054906101000a900473ffffffffffffffffffffffffffffffffffffffff1673ffffffffffffffffffffffffffffffffffffffff16145b8061240357503373ffffffffffffffffffffffffffffffffffffffff166004600084815260200190815260200160002060030160009054906101000a900473ffffffffffffffffffffffffffffffffffffffff1673ffffffffffffffffffffffffffffffffffffffff16145b8061246f57503373ffffffffffffffffffffffffffffffffffffffff166004600084815260200190815260200160002060020160009054906101000a900473ffffffffffffffffffffffffffffffffffffffff1673ffffffffffffffffffffffffffffffffffffffff16145b1515612509576040517f08c379a00000000000000000000000000000000000000000000000000000000081526004018080602001828103825260228152602001807f596f75277265206e6f7420617574686f72697a656420746f207669657720746881526020017f697300000000000000000000000000000000000000000000000000000000000081525060400191505060405180910390fd5b600460008381526020019081526020016000206006018054600181600116156101000203166002900480601f0160208091040260200160405190810160405280929190818152602001828054600181600116156101000203166002900480156125b35780601f10612588576101008083540402835291602001916125b3565b820191906000526020600020905b81548152906001019060200180831161259657829003601f168201915b50505050509050919050565b60006004600083815260200190815260200160002060070160009054906101000a900460ff169050919050565b3373ffffffffffffffffffffffffffffffffffffffff166004600083815260200190815260200160002060010160009054906101000a900473ffffffffffffffffffffffffffffffffffffffff1673ffffffffffffffffffffffffffffffffffffffff161415156126c5576040517f08c379a00000000000000000000000000000000000000000000000000000000081526004018080602001828103825260108152602001807f696e76616c69642064616d61676569640000000000000000000000000000000081525060200191505060405180910390fd5b60016004600083815260200190815260200160002060070160006101000a81548160ff021916908360058111156126f857fe5b021790555050565b82600860003373ffffffffffffffffffffffffffffffffffffffff1673ffffffffffffffffffffffffffffffffffffffff1681526020019081526020016000206000019080519060200190612756929190613982565b5081600860003373ffffffffffffffffffffffffffffffffffffffff1673ffffffffffffffffffffffffffffffffffffffff16815260200190815260200160002060020190805190602001906127ad929190613982565b5080600860003373ffffffffffffffffffffffffffffffffffffffff1673ffffffffffffffffffffffffffffffffffffffff1681526020019081526020016000206003019080519060200190612804929190613982565b506001600860003373ffffffffffffffffffffffffffffffffffffffff1673ffffffffffffffffffffffffffffffffffffffff16815260200190815260200160002060010160006101000a81548160ff021916908315150217905550505050565b60608060058054905060405190808252806020026020018201604052801561289c5781602001602082028038833980820191505090505b50905060008090506000809050600090505b600580549050811015612906576005818154811015156128ca57fe5b906000526020600020015483838151811015156128e357fe5b9060200190602002018181525050818060010192505080806001019150506128ae565b82935050505090565b60008060008060608060006004600089815260200190815260200160002060000160009054906101000a900473ffffffffffffffffffffffffffffffffffffffff16600460008a815260200190815260200160002060010160009054906101000a900473ffffffffffffffffffffffffffffffffffffffff16600460008b815260200190815260200160002060020160009054906101000a900473ffffffffffffffffffffffffffffffffffffffff16600460008c815260200190815260200160002060030160009054906101000a900473ffffffffffffffffffffffffffffffffffffffff16600460008d8152602001908152602001600020600401600460008e8152602001908152602001600020600501600460008f815260200190815260200160002060070160009054906101000a900460ff16828054600181600116156101000203166002900480601f016020809104026020016040519081016040528092919081815260200182805460018160011615610100020316600290048015612adb5780601f10612ab057610100808354040283529160200191612adb565b820191906000526020600020905b815481529060010190602001808311612abe57829003601f168201915b50505050509250818054600181600116156101000203166002900480601f016020809104026020016040519081016040528092919081815260200182805460018160011615610100020316600290048015612b775780601f10612b4c57610100808354040283529160200191612b77565b820191906000526020600020905b815481529060010190602001808311612b5a57829003601f168201915b505050505091509650965096509650965096509650919395979092949650565b606033600260008273ffffffffffffffffffffffffffffffffffffffff1673ffffffffffffffffffffffffffffffffffffffff16815260200190815260200160002060010160009054906101000a900460ff161515612c5e576040517f08c379a00000000000000000000000000000000000000000000000000000000081526004018080602001828103825260168152602001807f496e737572657220646f6573206e6f742065786973740000000000000000000081525060200191505060405180910390fd5b6060600260003373ffffffffffffffffffffffffffffffffffffffff1673ffffffffffffffffffffffffffffffffffffffff16815260200190815260200160002060040154604051908082528060200260200182016040528015612cd15781602001602082028038833980820191505090505b50905060008090506000809050600091505b600580549050821015612dbf573373ffffffffffffffffffffffffffffffffffffffff1660046000600585815481101515612d1a57fe5b9060005260206000200154815260200190815260200160002060010160009054906101000a900473ffffffffffffffffffffffffffffffffffffffff1673ffffffffffffffffffffffffffffffffffffffff161415612db257600582815481101515612d8257fe5b90600052602060002001548382815181101515612d9b57fe5b906020019060200201818152505080806001019150505b8180600101925050612ce3565b8294505050505090565b606033600860008273ffffffffffffffffffffffffffffffffffffffff1673ffffffffffffffffffffffffffffffffffffffff16815260200190815260200160002060010160009054906101000a900460ff161515612e90576040517f08c379a000000000000000000000000000000000000000000000000000000000815260040180806020018281038252601b8152602001807f496e76657374696761746f7220646f6573206e6f74206578697374000000000081525060200191505060405180910390fd5b6060600860003373ffffffffffffffffffffffffffffffffffffffff1673ffffffffffffffffffffffffffffffffffffffff16815260200190815260200160002060040154604051908082528060200260200182016040528015612f035781602001602082028038833980820191505090505b50905060008090506000809050600090505b600580549050811015612ff1573373ffffffffffffffffffffffffffffffffffffffff1660046000600584815481101515612f4c57fe5b9060005260206000200154815260200190815260200160002060020160009054906101000a900473ffffffffffffffffffffffffffffffffffffffff1673ffffffffffffffffffffffffffffffffffffffff161415612fe457600581815481101515612fb457fe5b90600052602060002001548383815181101515612fcd57fe5b906020019060200201818152505081806001019250505b8080600101915050612f15565b8294505050505090565b6000816040516020018082805190602001908083835b6020831015156130365780518252602082019150602081019050602083039250613011565b6001836020036101000a03801982511681845116808217855250505050505090500191505060405160208183030381529060405280519060200120836040516020018082805190602001908083835b6020831015156130aa5780518252602082019150602081019050602083039250613085565b6001836020036101000a0380198251168184511680821785525050505050509050019150506040516020818303038152906040528051906020012014905092915050565b826000803373ffffffffffffffffffffffffffffffffffffffff1673ffffffffffffffffffffffffffffffffffffffff1681526020019081526020016000206000019080519060200190613143929190613982565b50816000803373ffffffffffffffffffffffffffffffffffffffff1673ffffffffffffffffffffffffffffffffffffffff1681526020019081526020016000206001019080519060200190613199929190613982565b50806000803373ffffffffffffffffffffffffffffffffffffffff1673ffffffffffffffffffffffffffffffffffffffff16815260200190815260200160002060020190805190602001906131ef929190613982565b5060016000803373ffffffffffffffffffffffffffffffffffffffff1673ffffffffffffffffffffffffffffffffffffffff16815260200190815260200160002060030160006101000a81548160ff02191690831515021790555060013390806001815401808255809150509060018203906000526020600020016000909192909190916101000a81548173ffffffffffffffffffffffffffffffffffffffff021916908373ffffffffffffffffffffffffffffffffffffffff16021790555050505050565b606080606060006060336000808273ffffffffffffffffffffffffffffffffffffffff1673ffffffffffffffffffffffffffffffffffffffff16815260200190815260200160002060030160009054906101000a900460ff161515613382576040517f08c379a00000000000000000000000000000000000000000000000000000000081526004018080602001828103825260138152602001807f486f6d6520646f6573206e6f742065786973740000000000000000000000000081525060200191505060405180910390fd5b60008060003373ffffffffffffffffffffffffffffffffffffffff1673ffffffffffffffffffffffffffffffffffffffff1681526020019081526020016000206004018054905090506000803373ffffffffffffffffffffffffffffffffffffffff1673ffffffffffffffffffffffffffffffffffffffff1681526020019081526020016000206000016000803373ffffffffffffffffffffffffffffffffffffffff1673ffffffffffffffffffffffffffffffffffffffff1681526020019081526020016000206001016000803373ffffffffffffffffffffffffffffffffffffffff1673ffffffffffffffffffffffffffffffffffffffff168152602001908152602001600020600201836000803373ffffffffffffffffffffffffffffffffffffffff1673ffffffffffffffffffffffffffffffffffffffff168152602001908152602001600020600401848054600181600116156101000203166002900480601f0160208091040260200160405190810160405280929190818152602001828054600181600116156101000203166002900480156135655780601f1061353a57610100808354040283529160200191613565565b820191906000526020600020905b81548152906001019060200180831161354857829003601f168201915b50505050509450838054600181600116156101000203166002900480601f0160208091040260200160405190810160405280929190818152602001828054600181600116156101000203166002900480156136015780601f106135d657610100808354040283529160200191613601565b820191906000526020600020905b8154815290600101906020018083116135e457829003601f168201915b50505050509350828054600181600116156101000203166002900480601f01602080910402602001604051908101604052809291908181526020018280546001816001161561010002031660029004801561369d5780601f106136725761010080835404028352916020019161369d565b820191906000526020600020905b81548152906001019060200180831161368057829003601f168201915b50505050509250808054806020026020016040519081016040528092919081815260200182805480156136ef57602002820191906000526020600020905b8154815260200190600101908083116136db575b505050505090509650965096509650965050509091929394565b82600260003373ffffffffffffffffffffffffffffffffffffffff1673ffffffffffffffffffffffffffffffffffffffff168152602001908152602001600020600001908051906020019061375f929190613982565b5081600260003373ffffffffffffffffffffffffffffffffffffffff1673ffffffffffffffffffffffffffffffffffffffff16815260200190815260200160002060020190805190602001906137b6929190613982565b506001600260003373ffffffffffffffffffffffffffffffffffffffff1673ffffffffffffffffffffffffffffffffffffffff16815260200190815260200160002060010160006101000a81548160ff02191690831515021790555080600260003373ffffffffffffffffffffffffffffffffffffffff1673ffffffffffffffffffffffffffffffffffffffff1681526020019081526020016000206003019080519060200190613868929190613982565b50505050565b3373ffffffffffffffffffffffffffffffffffffffff166004600083815260200190815260200160002060030160009054906101000a900473ffffffffffffffffffffffffffffffffffffffff1673ffffffffffffffffffffffffffffffffffffffff16141515613947576040517f08c379a00000000000000000000000000000000000000000000000000000000081526004018080602001828103825260108152602001807f696e76616c69642064616d61676569640000000000000000000000000000000081525060200191505060405180910390fd5b60036004600083815260200190815260200160002060070160006101000a81548160ff0219169083600581111561397a57fe5b021790555050565b828054600181600116156101000203166002900490600052602060002090601f016020900481019282601f106139c357805160ff19168380011785556139f1565b828001600101855582156139f1579182015b828111156139f05782518255916020019190600101906139d5565b5b5090506139fe9190613a02565b5090565b613a2491905b80821115613a20576000816000905550600101613a08565b5090565b9056fea165627a7a723058209ac32b44642cc080ce9c9708149be8bf53b12b92b19c7374e34f2bbf3d28e1860029",
  "source": "pragma solidity >=0.4.22 <0.6.0;\r\n\r\ncontract SmartHome{\r\n     enum Status{Damage_noticed,Investigation, supplier_check, approval_pending,parts_replacement, resolved}\r\n\r\n       struct Home{\r\n        string name;\r\n        string contactno;\r\n        string homeAddress;\r\n        bool exist;\r\n        uint[] damagesArr; //store all damages of that home\r\n\r\n    }\r\n\r\n    struct Damage{\r\n        address home;\r\n        address insurer;\r\n        address investigator;\r\n        address supplier;\r\n        string area;\r\n        string device;\r\n        string cost;\r\n        Status status;\r\n    }\r\n\r\n    struct Insurer{\r\n        string name;\r\n        bool exist;\r\n        string contactno;\r\n      string device;\r\n        uint damageCount;\r\n    }\r\n\r\n    struct Investigator{\r\n        string name;\r\n        bool exist;\r\n        string contactno;\r\n        string device;\r\n        uint damageCount;\r\n    }\r\n\r\n    struct Supplier{\r\n        string device;\r\n        string name;\r\n        bool exist;\r\n        string contactno;\r\n        uint damageCount;\r\n    }\r\n\r\n    mapping(address => Home) homes;\r\n    address[] homeArr;\r\n\r\n    mapping(address => Insurer) insurers;\r\n    address[] insurerArr;\r\n\r\n    mapping(uint => Damage) damages;\r\n      uint[] damageArr;\r\n\r\n\r\n    //dummy\r\n    uint[] damageList;\r\n    uint damageCount=0;\r\n\r\n\r\n    mapping(address => Investigator ) inves; //store address and respective details\r\n    address[] invesArr;\r\n\r\n    mapping(address => Supplier) supp;\r\n    address[] suppArr;\r\n\r\n   //constructor\r\n  constructor() public {\r\n       damageCount=0;\r\n   }\r\n\r\nfunction compareStrings (string memory a, string memory b) public pure returns (bool) {\r\n        return (keccak256(abi.encodePacked((a))) == keccak256(abi.encodePacked((b))) );\r\n    }\r\n\r\n    //check auth of various parties\r\n\r\n    //home\r\n     modifier AuthorizedHome(address a){\r\n        require(homes[a].exist, \"Home does not exist\");\r\n        _;\r\n    }\r\n    //insurer\r\n      modifier AuthorizedInsurer(address a){\r\n        require(insurers[a].exist, \"Insurer does not exist\");\r\n        _;\r\n    }\r\n\r\n    //Investigator\r\n      modifier AuthorizedInvestigator(address a){\r\n        require(inves[a].exist, \"Investigator does not exist\");\r\n        _;\r\n    }\r\n    //supplier\r\n    modifier AuthorizedSuuplier(address a){\r\n        require(supp[a].exist, \"Supplier does not exist\");\r\n        _;\r\n    }\r\n\r\n\r\n\r\n    //add home\r\n       function addHome(string memory name,string memory contactno, string memory homeAddress ) public {\r\n        homes[msg.sender].name = name;\r\n        homes[msg.sender].contactno = contactno;\r\n        homes[msg.sender].homeAddress = homeAddress;\r\n        homes[msg.sender].exist=true;\r\n        homeArr.push(msg.sender);\r\n    }\r\n\r\n     //add dummy insurer\r\n  //  function addDummyInsurer(string memory name,string memory contactno) public{\r\n  //      address dummy = 0xdD870fA1b7C4700F2BD7f44238821C26f7392148;\r\n  //      insurers[dummy].name = name;\r\n  //      insurers[dummy].contactno = contactno;\r\n //   }\r\n\r\n\r\n  //add insurer\r\n  function addInsurer(string memory name, string memory contactno, string memory device) public{\r\n      insurers[msg.sender].name=name;\r\n      insurers[msg.sender].contactno=contactno;\r\n      insurers[msg.sender].exist=true;\r\n      insurers[msg.sender].device=device;\r\n   //   insurers[msg.sender].area=area;\r\n  }\r\n\r\n\r\n  //add Investigator\r\n    function addInvestigator(string memory name, string memory contactno, string memory device) public{\r\n      inves[msg.sender].name=name;\r\n      inves[msg.sender].contactno=contactno;\r\n      inves[msg.sender].device=device;\r\n      inves[msg.sender].exist=true;\r\n     //  inves[msg.sender].area=area;\r\n  }\r\n\r\n\r\n    //add Supplier\r\n\r\n    function addSupplier(string memory name, string memory contactno, string memory device) public{\r\n      supp[msg.sender].name=name;\r\n      supp[msg.sender].contactno=contactno;\r\n      supp[msg.sender].device=device;\r\n      supp[msg.sender].exist=true;\r\n    //  supp[msg.sender].area=area;\r\n  }\r\n\r\n    //add damage\r\n    function addDamage(address insurer, address investigator,address supplier,string memory area, string memory device) public AuthorizedHome(msg.sender)\r\n    AuthorizedInsurer(insurer) AuthorizedInvestigator(investigator) AuthorizedSuuplier(supplier) {\r\n\r\n\r\n        damageCount++;\r\n        uint id = damageCount;\r\n\r\n        damages[id].home = msg.sender;\r\n        damages[id].status = Status.Damage_noticed;\r\n        damages[id].insurer = insurer;\r\n        damages[id].investigator=investigator;\r\n        damages[id].supplier=supplier;\r\n        damages[id].area = area;\r\n        damages[id].device = device;\r\n        damages[id].cost= \"-\";\r\n\r\n        homes[msg.sender].damagesArr.push(id); //pushing to map address of home => damages of home\r\n\r\n         // increase damage count of each of the party involved\r\n        insurers[insurer].damageCount++;\r\n        inves[investigator].damageCount++;\r\n        supp[supplier].damageCount++;\r\n        damageArr.push(id);\r\n    }\r\n\r\n\r\n    //get home details\r\n    function getHome() public AuthorizedHome(msg.sender) view returns(string memory, string memory, string memory, uint , uint[] memory ){\r\n        uint total_damages=homes[msg.sender].damagesArr.length;\r\n        return( homes[msg.sender].name, homes[msg.sender].contactno, homes[msg.sender].homeAddress,total_damages,homes[msg.sender].damagesArr);\r\n    }\r\n\r\n\r\n  //get all damages of home owner\r\n  // directly through damagesArr of home -> so not required\r\n  //get list of all damages\r\n  function getAllDamage() public view returns(uint[] memory)\r\n  {\r\n      uint[] memory dam= new uint[](damageArr.length);\r\n\r\n      uint j=0;\r\n      uint i=0;\r\n\r\n      for(i=0;i<damageArr.length;i++)\r\n      {\r\n          dam[j]=damageArr[i];\r\n          j++;\r\n      }\r\n      return dam;\r\n  }\r\n\r\n\r\n    //get all the damages id of insurer\r\n\r\n    function getDamagesInsurer() public AuthorizedInsurer(msg.sender) view returns(uint[] memory){\r\n        uint[] memory damageBYInsurer = new uint[](insurers[msg.sender].damageCount);\r\n\r\n\r\n        uint i=0;\r\n        uint j=0;\r\n        for(i=0;i<damageArr.length;i++)\r\n        {\r\n            if(damages[damageArr[i]].insurer==msg.sender) //add\r\n            {\r\n                damageBYInsurer[j]=damageArr[i];\r\n                j++;\r\n            }\r\n        }\r\n        return damageBYInsurer;\r\n    }\r\n\r\n//get all damages of Investigator\r\n\r\nfunction getDamagesInvestigator()public AuthorizedInvestigator(msg.sender) view returns(uint[] memory)\r\n{\r\n      uint[] memory damageBYInves = new uint[](inves[msg.sender].damageCount);\r\n\r\n      uint j=0;\r\n      uint i=0;\r\n\r\n      for(i=0;i<damageArr.length;i++)\r\n      {\r\n          if(damages[damageArr[i]].investigator==msg.sender) //add\r\n          {\r\n              damageBYInves[j]=damageArr[i];\r\n              j++;\r\n          }\r\n\r\n\r\n      }\r\n       return damageBYInves;\r\n}\r\n\r\n//get all damages id for supplier\r\nfunction getDamagesSupplier()public AuthorizedSuuplier(msg.sender) view returns(uint[] memory)\r\n{\r\n      uint[] memory damageBYSupp = new uint[](supp[msg.sender].damageCount);\r\n\r\n      uint j=0;\r\n      uint i=0;\r\n\r\n      for(i=0;i<damageArr.length;i++)\r\n      {\r\n          if(damages[damageArr[i]].supplier==msg.sender) //add\r\n          {\r\n              damageBYSupp[j]=damageArr[i];\r\n              j++;\r\n          }\r\n\r\n\r\n      }\r\n       return damageBYSupp;\r\n}\r\n\r\n//get curr status of damage\r\nfunction getStatus(uint damageid) public view returns(Status)\r\n{\r\n    return (damages[damageid].status);\r\n}\r\n//return damage info given damageid\r\n\r\nfunction getDamageDetails(uint damageid) public view returns(address, address, address, address, string memory, string memory, Status)\r\n{\r\n    return (damages[damageid].home,\r\n             damages[damageid].insurer,\r\n             damages[damageid].investigator,\r\n             damages[damageid].supplier,\r\n             damages[damageid].area,\r\n             damages[damageid].device,\r\n             damages[damageid].status);\r\n}\r\n//update status to investigation\r\nfunction passDamagetoInves(uint damageid) public{\r\n    require(damages[damageid].insurer==msg.sender,\"invalid damageid\");\r\n\r\n    damages[damageid].status= Status.Investigation;\r\n\r\n}\r\n\r\n//update status to  supplier_check\r\n\r\n  function passDamagetoSupp(uint damageid) public{\r\n    require(damages[damageid].investigator==msg.sender,\"invalid damageid\");\r\n\r\n    damages[damageid].status= Status.supplier_check;\r\n\r\n}\r\n\r\n//update status to  approval_pending\r\n  function passDamagetoInsurer(uint damageid) public{\r\n    require(damages[damageid].supplier==msg.sender,\"invalid damageid\");\r\n\r\n    damages[damageid].status= Status.approval_pending;\r\n\r\n}\r\n\r\n//update status to parts_replacement and resolved both by insurer\r\n function statusUpdateInsur(uint damageid) public{\r\n    require(damages[damageid].insurer==msg.sender,\"invalid damageid\");\r\n\r\n    Status curr=damages[damageid].status;\r\n    if(curr==Status.approval_pending)\r\n    damages[damageid].status= Status.parts_replacement;\r\n    else if(curr==Status.parts_replacement)\r\n     damages[damageid].status= Status.resolved;\r\n\r\n}\r\n\r\n// add estimated cost by supplier\r\n\r\nfunction addCost(string memory cost,uint damageid) public {\r\n     require(damages[damageid].supplier==msg.sender,\"You're not authorized\");\r\n    damages[damageid].cost= cost;\r\n}\r\n\r\n//get cost\r\nfunction getCost(uint damageid) public view returns(string memory){\r\n      require(( damages[damageid].home==msg.sender)||(damages[damageid].insurer==msg.sender) ||(damages[damageid].supplier==msg.sender) ||\r\n      (damages[damageid].investigator==msg.sender),\"You're not authorized to view this\");\r\n\r\n      return damages[damageid].cost;\r\n}\r\n\r\n}",
  "sourcePath": "D:/project/smart home/Minor_project/src/Blockchain/contracts/SmartHome.sol",
  "compiler": {
    "name": "solc",
    "version": "0.5.0+commit.1d4f565a.Emscripten.clang"
  },
  "schemaVersion": "3.0.2",
  "updatedAt": "2020-12-15T09:13:00.980Z",
  "devdoc": {
    "methods": {}
  },
  "userdoc": {
    "methods": {}
  }
}