{
  "contractName": "SmartHome",
  "abi": [
    {
      "inputs": [],
      "payable": false,
      "stateMutability": "nonpayable",
      "type": "constructor"
    },
    {
      "constant": true,
      "inputs": [
        {
          "internalType": "string",
          "name": "a",
          "type": "string"
        },
        {
          "internalType": "string",
          "name": "b",
          "type": "string"
        }
      ],
      "name": "compareStrings",
      "outputs": [
        {
          "internalType": "bool",
          "name": "",
          "type": "bool"
        }
      ],
      "payable": false,
      "stateMutability": "pure",
      "type": "function"
    },
    {
      "constant": false,
      "inputs": [
        {
          "internalType": "string",
          "name": "name",
          "type": "string"
        },
        {
          "internalType": "string",
          "name": "contactno",
          "type": "string"
        },
        {
          "internalType": "string",
          "name": "homeAddress",
          "type": "string"
        }
      ],
      "name": "addHome",
      "outputs": [],
      "payable": false,
      "stateMutability": "nonpayable",
      "type": "function"
    },
    {
      "constant": false,
      "inputs": [
        {
          "internalType": "string",
          "name": "name",
          "type": "string"
        },
        {
          "internalType": "string",
          "name": "contactno",
          "type": "string"
        },
        {
          "internalType": "string",
          "name": "device",
          "type": "string"
        }
      ],
      "name": "addInsurer",
      "outputs": [],
      "payable": false,
      "stateMutability": "nonpayable",
      "type": "function"
    },
    {
      "constant": false,
      "inputs": [
        {
          "internalType": "string",
          "name": "name",
          "type": "string"
        },
        {
          "internalType": "string",
          "name": "contactno",
          "type": "string"
        },
        {
          "internalType": "string",
          "name": "device",
          "type": "string"
        }
      ],
      "name": "addInvestigator",
      "outputs": [],
      "payable": false,
      "stateMutability": "nonpayable",
      "type": "function"
    },
    {
      "constant": false,
      "inputs": [
        {
          "internalType": "string",
          "name": "name",
          "type": "string"
        },
        {
          "internalType": "string",
          "name": "contactno",
          "type": "string"
        },
        {
          "internalType": "string",
          "name": "device",
          "type": "string"
        }
      ],
      "name": "addSupplier",
      "outputs": [],
      "payable": false,
      "stateMutability": "nonpayable",
      "type": "function"
    },
    {
      "constant": false,
      "inputs": [
        {
          "internalType": "address",
          "name": "insurer",
          "type": "address"
        },
        {
          "internalType": "address",
          "name": "investigator",
          "type": "address"
        },
        {
          "internalType": "address",
          "name": "supplier",
          "type": "address"
        },
        {
          "internalType": "string",
          "name": "area",
          "type": "string"
        },
        {
          "internalType": "string",
          "name": "device",
          "type": "string"
        }
      ],
      "name": "addDamage",
      "outputs": [],
      "payable": false,
      "stateMutability": "nonpayable",
      "type": "function"
    },
    {
      "constant": true,
      "inputs": [],
      "name": "getHome",
      "outputs": [
        {
          "internalType": "string",
          "name": "",
          "type": "string"
        },
        {
          "internalType": "string",
          "name": "",
          "type": "string"
        },
        {
          "internalType": "string",
          "name": "",
          "type": "string"
        },
        {
          "internalType": "uint256",
          "name": "",
          "type": "uint256"
        },
        {
          "internalType": "uint256[]",
          "name": "",
          "type": "uint256[]"
        }
      ],
      "payable": false,
      "stateMutability": "view",
      "type": "function"
    },
    {
      "constant": true,
      "inputs": [],
      "name": "getAllDamage",
      "outputs": [
        {
          "internalType": "uint256[]",
          "name": "",
          "type": "uint256[]"
        }
      ],
      "payable": false,
      "stateMutability": "view",
      "type": "function"
    },
    {
      "constant": true,
      "inputs": [],
      "name": "getDamagesInsurer",
      "outputs": [
        {
          "internalType": "uint256[]",
          "name": "",
          "type": "uint256[]"
        }
      ],
      "payable": false,
      "stateMutability": "view",
      "type": "function"
    },
    {
      "constant": true,
      "inputs": [],
      "name": "getDamagesInvestigator",
      "outputs": [
        {
          "internalType": "uint256[]",
          "name": "",
          "type": "uint256[]"
        }
      ],
      "payable": false,
      "stateMutability": "view",
      "type": "function"
    },
    {
      "constant": true,
      "inputs": [],
      "name": "getDamagesSupplier",
      "outputs": [
        {
          "internalType": "uint256[]",
          "name": "",
          "type": "uint256[]"
        }
      ],
      "payable": false,
      "stateMutability": "view",
      "type": "function"
    },
    {
      "constant": true,
      "inputs": [
        {
          "internalType": "uint256",
          "name": "damageid",
          "type": "uint256"
        }
      ],
      "name": "getStatus",
      "outputs": [
        {
          "internalType": "enum SmartHome.Status",
          "name": "",
          "type": "uint8"
        }
      ],
      "payable": false,
      "stateMutability": "view",
      "type": "function"
    },
    {
      "constant": true,
      "inputs": [
        {
          "internalType": "uint256",
          "name": "damageid",
          "type": "uint256"
        }
      ],
      "name": "getDamageDetails",
      "outputs": [
        {
          "internalType": "address",
          "name": "",
          "type": "address"
        },
        {
          "internalType": "address",
          "name": "",
          "type": "address"
        },
        {
          "internalType": "address",
          "name": "",
          "type": "address"
        },
        {
          "internalType": "address",
          "name": "",
          "type": "address"
        },
        {
          "internalType": "string",
          "name": "",
          "type": "string"
        },
        {
          "internalType": "string",
          "name": "",
          "type": "string"
        },
        {
          "internalType": "enum SmartHome.Status",
          "name": "",
          "type": "uint8"
        }
      ],
      "payable": false,
      "stateMutability": "view",
      "type": "function"
    },
    {
      "constant": false,
      "inputs": [
        {
          "internalType": "uint256",
          "name": "damageid",
          "type": "uint256"
        }
      ],
      "name": "passDamagetoInves",
      "outputs": [],
      "payable": false,
      "stateMutability": "nonpayable",
      "type": "function"
    },
    {
      "constant": false,
      "inputs": [
        {
          "internalType": "uint256",
          "name": "damageid",
          "type": "uint256"
        }
      ],
      "name": "passDamagetoSupp",
      "outputs": [],
      "payable": false,
      "stateMutability": "nonpayable",
      "type": "function"
    },
    {
      "constant": false,
      "inputs": [
        {
          "internalType": "uint256",
          "name": "damageid",
          "type": "uint256"
        }
      ],
      "name": "passDamagetoInsurer",
      "outputs": [],
      "payable": false,
      "stateMutability": "nonpayable",
      "type": "function"
    },
    {
      "constant": false,
      "inputs": [
        {
          "internalType": "uint256",
          "name": "damageid",
          "type": "uint256"
        }
      ],
      "name": "statusUpdateInsur",
      "outputs": [],
      "payable": false,
      "stateMutability": "nonpayable",
      "type": "function"
    },
    {
      "constant": false,
      "inputs": [
        {
          "internalType": "string",
          "name": "cost",
          "type": "string"
        },
        {
          "internalType": "uint256",
          "name": "damageid",
          "type": "uint256"
        }
      ],
      "name": "addCost",
      "outputs": [],
      "payable": false,
      "stateMutability": "nonpayable",
      "type": "function"
    },
    {
      "constant": true,
      "inputs": [
        {
          "internalType": "uint256",
          "name": "damageid",
          "type": "uint256"
        }
      ],
      "name": "getCost",
      "outputs": [
        {
          "internalType": "string",
          "name": "",
          "type": "string"
        }
      ],
      "payable": false,
      "stateMutability": "view",
      "type": "function"
    }
  ],
  "bytecode": "0x6080604052600060075534801561001557600080fd5b5060006007819055506139208061002d6000396000f3fe608060405234801561001057600080fd5b50600436106101215760003560e01c80639e0bce9f116100ad578063bed34bba11610071578063bed34bba14610c60578063ced7d5ad14610dca578063e6af48ad14610fb3578063f084cb751461115d578063fce9aa331461134657610121565b80639e0bce9f146107665780639e33625e1461094f578063a0cea680146109ae578063ae70000d14610ba2578063af63f27114610c0157610121565b806346f04195116100f457806346f041951461042a5780634f8a2abc146106135780635a4dd47d146106415780635c622a0e146106e85780639acf6c691461073857610121565b80630221b28e1461012657806303eb42c2146101eb5780631fb6f6551461021957806329d26fa4146103cb575b600080fd5b6101e96004803603604081101561013c57600080fd5b810190808035906020019064010000000081111561015957600080fd5b82018360208201111561016b57600080fd5b8035906020019184600183028401116401000000008311171561018d57600080fd5b91908080601f016020809104026020016040519081016040528093929190818152602001838380828437600081840152601f19601f82011690508083019250505050505050919291929080359060200190929190505050611374565b005b6102176004803603602081101561020157600080fd5b810190808035906020019092919050505061147a565b005b6103c9600480360360a081101561022f57600080fd5b81019080803573ffffffffffffffffffffffffffffffffffffffff169060200190929190803573ffffffffffffffffffffffffffffffffffffffff169060200190929190803573ffffffffffffffffffffffffffffffffffffffff169060200190929190803590602001906401000000008111156102ac57600080fd5b8201836020820111156102be57600080fd5b803590602001918460018302840111640100000000831117156102e057600080fd5b91908080601f016020809104026020016040519081016040528093929190818152602001838380828437600081840152601f19601f8201169050808301925050505050505091929192908035906020019064010000000081111561034357600080fd5b82018360208201111561035557600080fd5b8035906020019184600183028401116401000000008311171561037757600080fd5b91908080601f016020809104026020016040519081016040528093929190818152602001838380828437600081840152601f19601f82011690508083019250505050505050919291929050505061158c565b005b6103d3611c8b565b6040518080602001828103825283818151815260200191508051906020019060200280838360005b838110156104165780820151818401526020810190506103fb565b505050509050019250505060405180910390f35b6106116004803603606081101561044057600080fd5b810190808035906020019064010000000081111561045d57600080fd5b82018360208201111561046f57600080fd5b8035906020019184600183028401116401000000008311171561049157600080fd5b91908080601f016020809104026020016040519081016040528093929190818152602001838380828437600081840152601f19601f820116905080830192505050505050509192919290803590602001906401000000008111156104f457600080fd5b82018360208201111561050657600080fd5b8035906020019184600183028401116401000000008311171561052857600080fd5b91908080601f016020809104026020016040519081016040528093929190818152602001838380828437600081840152601f19601f8201169050808301925050505050505091929192908035906020019064010000000081111561058b57600080fd5b82018360208201111561059d57600080fd5b803590602001918460018302840111640100000000831117156105bf57600080fd5b91908080601f016020809104026020016040519081016040528093929190818152602001838380828437600081840152601f19601f820116905080830192505050505050509192919290505050611eb3565b005b61063f6004803603602081101561062957600080fd5b8101908080359060200190929190505050612018565b005b61066d6004803603602081101561065757600080fd5b81019080803590602001909291905050506121cf565b6040518080602001828103825283818151815260200191508051906020019080838360005b838110156106ad578082015181840152602081019050610692565b50505050905090810190601f1680156106da5780820380516001836020036101000a031916815260200191505b509250505060405180910390f35b610714600480360360208110156106fe57600080fd5b8101908080359060200190929190505050612485565b6040518082600581111561072457fe5b60ff16815260200191505060405180910390f35b6107646004803603602081101561074e57600080fd5b81019080803590602001909291905050506124b2565b005b61094d6004803603606081101561077c57600080fd5b810190808035906020019064010000000081111561079957600080fd5b8201836020820111156107ab57600080fd5b803590602001918460018302840111640100000000831117156107cd57600080fd5b91908080601f016020809104026020016040519081016040528093929190818152602001838380828437600081840152601f19601f8201169050808301925050505050505091929192908035906020019064010000000081111561083057600080fd5b82018360208201111561084257600080fd5b8035906020019184600183028401116401000000008311171561086457600080fd5b91908080601f016020809104026020016040519081016040528093929190818152602001838380828437600081840152601f19601f820116905080830192505050505050509192919290803590602001906401000000008111156108c757600080fd5b8201836020820111156108d957600080fd5b803590602001918460018302840111640100000000831117156108fb57600080fd5b91908080601f016020809104026020016040519081016040528093929190818152602001838380828437600081840152601f19601f8201169050808301925050505050505091929192905050506125c4565b005b610957612729565b6040518080602001828103825283818151815260200191508051906020019060200280838360005b8381101561099a57808201518184015260208101905061097f565b505050509050019250505060405180910390f35b6109da600480360360208110156109c457600080fd5b81019080803590602001909291905050506127cd565b604051808873ffffffffffffffffffffffffffffffffffffffff1673ffffffffffffffffffffffffffffffffffffffff1681526020018773ffffffffffffffffffffffffffffffffffffffff1673ffffffffffffffffffffffffffffffffffffffff1681526020018673ffffffffffffffffffffffffffffffffffffffff1673ffffffffffffffffffffffffffffffffffffffff1681526020018573ffffffffffffffffffffffffffffffffffffffff1673ffffffffffffffffffffffffffffffffffffffff1681526020018060200180602001846005811115610aba57fe5b60ff168152602001838103835286818151815260200191508051906020019080838360005b83811015610afa578082015181840152602081019050610adf565b50505050905090810190601f168015610b275780820380516001836020036101000a031916815260200191505b50838103825285818151815260200191508051906020019080838360005b83811015610b60578082015181840152602081019050610b45565b50505050905090810190601f168015610b8d5780820380516001836020036101000a031916815260200191505b50995050505050505050505060405180910390f35b610baa612a55565b6040518080602001828103825283818151815260200191508051906020019060200280838360005b83811015610bed578082015181840152602081019050610bd2565b505050509050019250505060405180910390f35b610c09612c7d565b6040518080602001828103825283818151815260200191508051906020019060200280838360005b83811015610c4c578082015181840152602081019050610c31565b505050509050019250505060405180910390f35b610db060048036036040811015610c7657600080fd5b8101908080359060200190640100000000811115610c9357600080fd5b820183602082011115610ca557600080fd5b80359060200191846001830284011164010000000083111715610cc757600080fd5b91908080601f016020809104026020016040519081016040528093929190818152602001838380828437600081840152601f19601f82011690508083019250505050505050919291929080359060200190640100000000811115610d2a57600080fd5b820183602082011115610d3c57600080fd5b80359060200191846001830284011164010000000083111715610d5e57600080fd5b91908080601f016020809104026020016040519081016040528093929190818152602001838380828437600081840152601f19601f820116905080830192505050505050509192919290505050612ea5565b604051808215151515815260200191505060405180910390f35b610fb160048036036060811015610de057600080fd5b8101908080359060200190640100000000811115610dfd57600080fd5b820183602082011115610e0f57600080fd5b80359060200191846001830284011164010000000083111715610e3157600080fd5b91908080601f016020809104026020016040519081016040528093929190818152602001838380828437600081840152601f19601f82011690508083019250505050505050919291929080359060200190640100000000811115610e9457600080fd5b820183602082011115610ea657600080fd5b80359060200191846001830284011164010000000083111715610ec857600080fd5b91908080601f016020809104026020016040519081016040528093929190818152602001838380828437600081840152601f19601f82011690508083019250505050505050919291929080359060200190640100000000811115610f2b57600080fd5b820183602082011115610f3d57600080fd5b80359060200191846001830284011164010000000083111715610f5f57600080fd5b91908080601f016020809104026020016040519081016040528093929190818152602001838380828437600081840152601f19601f820116905080830192505050505050509192919290505050612f94565b005b610fbb61315b565b604051808060200180602001806020018681526020018060200185810385528a818151815260200191508051906020019080838360005b8381101561100d578082015181840152602081019050610ff2565b50505050905090810190601f16801561103a5780820380516001836020036101000a031916815260200191505b50858103845289818151815260200191508051906020019080838360005b83811015611073578082015181840152602081019050611058565b50505050905090810190601f1680156110a05780820380516001836020036101000a031916815260200191505b50858103835288818151815260200191508051906020019080838360005b838110156110d95780820151818401526020810190506110be565b50505050905090810190601f1680156111065780820380516001836020036101000a031916815260200191505b50858103825286818151815260200191508051906020019060200280838360005b83811015611142578082015181840152602081019050611127565b50505050905001995050505050505050505060405180910390f35b6113446004803603606081101561117357600080fd5b810190808035906020019064010000000081111561119057600080fd5b8201836020820111156111a257600080fd5b803590602001918460018302840111640100000000831117156111c457600080fd5b91908080601f016020809104026020016040519081016040528093929190818152602001838380828437600081840152601f19601f8201169050808301925050505050505091929192908035906020019064010000000081111561122757600080fd5b82018360208201111561123957600080fd5b8035906020019184600183028401116401000000008311171561125b57600080fd5b91908080601f016020809104026020016040519081016040528093929190818152602001838380828437600081840152601f19601f820116905080830192505050505050509192919290803590602001906401000000008111156112be57600080fd5b8201836020820111156112d057600080fd5b803590602001918460018302840111640100000000831117156112f257600080fd5b91908080601f016020809104026020016040519081016040528093929190818152602001838380828437600081840152601f19601f8201169050808301925050505050505091929192905050506135ad565b005b6113726004803603602081101561135c57600080fd5b8101908080359060200190929190505050613712565b005b3373ffffffffffffffffffffffffffffffffffffffff166004600083815260200190815260200160002060030160009054906101000a900473ffffffffffffffffffffffffffffffffffffffff1673ffffffffffffffffffffffffffffffffffffffff161461144b576040517f08c379a00000000000000000000000000000000000000000000000000000000081526004018080602001828103825260158152602001807f596f75277265206e6f7420617574686f72697a6564000000000000000000000081525060200191505060405180910390fd5b81600460008381526020019081526020016000206006019080519060200190611475929190613824565b505050565b3373ffffffffffffffffffffffffffffffffffffffff166004600083815260200190815260200160002060020160009054906101000a900473ffffffffffffffffffffffffffffffffffffffff1673ffffffffffffffffffffffffffffffffffffffff1614611551576040517f08c379a00000000000000000000000000000000000000000000000000000000081526004018080602001828103825260108152602001807f696e76616c69642064616d61676569640000000000000000000000000000000081525060200191505060405180910390fd5b60026004600083815260200190815260200160002060070160006101000a81548160ff0219169083600581111561158457fe5b021790555050565b336000808273ffffffffffffffffffffffffffffffffffffffff1673ffffffffffffffffffffffffffffffffffffffff16815260200190815260200160002060030160009054906101000a900460ff1661164e576040517f08c379a00000000000000000000000000000000000000000000000000000000081526004018080602001828103825260138152602001807f486f6d6520646f6573206e6f742065786973740000000000000000000000000081525060200191505060405180910390fd5b85600260008273ffffffffffffffffffffffffffffffffffffffff1673ffffffffffffffffffffffffffffffffffffffff16815260200190815260200160002060010160009054906101000a900460ff16611711576040517f08c379a00000000000000000000000000000000000000000000000000000000081526004018080602001828103825260168152602001807f496e737572657220646f6573206e6f742065786973740000000000000000000081525060200191505060405180910390fd5b85600860008273ffffffffffffffffffffffffffffffffffffffff1673ffffffffffffffffffffffffffffffffffffffff16815260200190815260200160002060010160009054906101000a900460ff166117d4576040517f08c379a000000000000000000000000000000000000000000000000000000000815260040180806020018281038252601b8152602001807f496e76657374696761746f7220646f6573206e6f74206578697374000000000081525060200191505060405180910390fd5b85600a60008273ffffffffffffffffffffffffffffffffffffffff1673ffffffffffffffffffffffffffffffffffffffff16815260200190815260200160002060020160009054906101000a900460ff16611897576040517f08c379a00000000000000000000000000000000000000000000000000000000081526004018080602001828103825260178152602001807f537570706c69657220646f6573206e6f7420657869737400000000000000000081525060200191505060405180910390fd5b60076000815480929190600101919050555060006007549050336004600083815260200190815260200160002060000160006101000a81548173ffffffffffffffffffffffffffffffffffffffff021916908373ffffffffffffffffffffffffffffffffffffffff16021790555060006004600083815260200190815260200160002060070160006101000a81548160ff0219169083600581111561193857fe5b0217905550896004600083815260200190815260200160002060010160006101000a81548173ffffffffffffffffffffffffffffffffffffffff021916908373ffffffffffffffffffffffffffffffffffffffff160217905550886004600083815260200190815260200160002060020160006101000a81548173ffffffffffffffffffffffffffffffffffffffff021916908373ffffffffffffffffffffffffffffffffffffffff160217905550876004600083815260200190815260200160002060030160006101000a81548173ffffffffffffffffffffffffffffffffffffffff021916908373ffffffffffffffffffffffffffffffffffffffff16021790555086600460008381526020019081526020016000206004019080519060200190611a66929190613824565b5085600460008381526020019081526020016000206005019080519060200190611a91929190613824565b506040518060400160405280600181526020017f2d00000000000000000000000000000000000000000000000000000000000000815250600460008381526020019081526020016000206006019080519060200190611af1929190613824565b506000803373ffffffffffffffffffffffffffffffffffffffff1673ffffffffffffffffffffffffffffffffffffffff168152602001908152602001600020600401819080600181540180825580915050906001820390600052602060002001600090919290919091505550600260008b73ffffffffffffffffffffffffffffffffffffffff1673ffffffffffffffffffffffffffffffffffffffff16815260200190815260200160002060040160008154809291906001019190505550600860008a73ffffffffffffffffffffffffffffffffffffffff1673ffffffffffffffffffffffffffffffffffffffff16815260200190815260200160002060040160008154809291906001019190505550600a60008973ffffffffffffffffffffffffffffffffffffffff1673ffffffffffffffffffffffffffffffffffffffff16815260200190815260200160002060040160008154809291906001019190505550600581908060018154018082558091505090600182039060005260206000200160009091929091909150555050505050505050505050565b606033600a60008273ffffffffffffffffffffffffffffffffffffffff1673ffffffffffffffffffffffffffffffffffffffff16815260200190815260200160002060020160009054906101000a900460ff16611d50576040517f08c379a00000000000000000000000000000000000000000000000000000000081526004018080602001828103825260178152602001807f537570706c69657220646f6573206e6f7420657869737400000000000000000081525060200191505060405180910390fd5b6060600a60003373ffffffffffffffffffffffffffffffffffffffff1673ffffffffffffffffffffffffffffffffffffffff16815260200190815260200160002060040154604051908082528060200260200182016040528015611dc35781602001602082028038833980820191505090505b50905060008090506000809050600090505b600580549050811015611ea9573373ffffffffffffffffffffffffffffffffffffffff166004600060058481548110611e0a57fe5b9060005260206000200154815260200190815260200160002060030160009054906101000a900473ffffffffffffffffffffffffffffffffffffffff1673ffffffffffffffffffffffffffffffffffffffff161415611e9c5760058181548110611e7057fe5b9060005260206000200154838381518110611e8757fe5b60200260200101818152505081806001019250505b8080600101915050611dd5565b8294505050505090565b82600a60003373ffffffffffffffffffffffffffffffffffffffff1673ffffffffffffffffffffffffffffffffffffffff1681526020019081526020016000206001019080519060200190611f09929190613824565b5081600a60003373ffffffffffffffffffffffffffffffffffffffff1673ffffffffffffffffffffffffffffffffffffffff1681526020019081526020016000206003019080519060200190611f60929190613824565b5080600a60003373ffffffffffffffffffffffffffffffffffffffff1673ffffffffffffffffffffffffffffffffffffffff1681526020019081526020016000206000019080519060200190611fb7929190613824565b506001600a60003373ffffffffffffffffffffffffffffffffffffffff1673ffffffffffffffffffffffffffffffffffffffff16815260200190815260200160002060020160006101000a81548160ff021916908315150217905550505050565b3373ffffffffffffffffffffffffffffffffffffffff166004600083815260200190815260200160002060010160009054906101000a900473ffffffffffffffffffffffffffffffffffffffff1673ffffffffffffffffffffffffffffffffffffffff16146120ef576040517f08c379a00000000000000000000000000000000000000000000000000000000081526004018080602001828103825260108152602001807f696e76616c69642064616d61676569640000000000000000000000000000000081525060200191505060405180910390fd5b60006004600083815260200190815260200160002060070160009054906101000a900460ff1690506003600581111561212457fe5b81600581111561213057fe5b141561217257600480600084815260200190815260200160002060070160006101000a81548160ff0219169083600581111561216857fe5b02179055506121cb565b6004600581111561217f57fe5b81600581111561218b57fe5b14156121ca5760056004600084815260200190815260200160002060070160006101000a81548160ff021916908360058111156121c457fe5b02179055505b5b5050565b60603373ffffffffffffffffffffffffffffffffffffffff166004600084815260200190815260200160002060000160009054906101000a900473ffffffffffffffffffffffffffffffffffffffff1673ffffffffffffffffffffffffffffffffffffffff1614806122a257503373ffffffffffffffffffffffffffffffffffffffff166004600084815260200190815260200160002060010160009054906101000a900473ffffffffffffffffffffffffffffffffffffffff1673ffffffffffffffffffffffffffffffffffffffff16145b8061230e57503373ffffffffffffffffffffffffffffffffffffffff166004600084815260200190815260200160002060030160009054906101000a900473ffffffffffffffffffffffffffffffffffffffff1673ffffffffffffffffffffffffffffffffffffffff16145b8061237a57503373ffffffffffffffffffffffffffffffffffffffff166004600084815260200190815260200160002060020160009054906101000a900473ffffffffffffffffffffffffffffffffffffffff1673ffffffffffffffffffffffffffffffffffffffff16145b6123cf576040517f08c379a00000000000000000000000000000000000000000000000000000000081526004018080602001828103825260228152602001806138ca6022913960400191505060405180910390fd5b600460008381526020019081526020016000206006018054600181600116156101000203166002900480601f0160208091040260200160405190810160405280929190818152602001828054600181600116156101000203166002900480156124795780601f1061244e57610100808354040283529160200191612479565b820191906000526020600020905b81548152906001019060200180831161245c57829003601f168201915b50505050509050919050565b60006004600083815260200190815260200160002060070160009054906101000a900460ff169050919050565b3373ffffffffffffffffffffffffffffffffffffffff166004600083815260200190815260200160002060010160009054906101000a900473ffffffffffffffffffffffffffffffffffffffff1673ffffffffffffffffffffffffffffffffffffffff1614612589576040517f08c379a00000000000000000000000000000000000000000000000000000000081526004018080602001828103825260108152602001807f696e76616c69642064616d61676569640000000000000000000000000000000081525060200191505060405180910390fd5b60016004600083815260200190815260200160002060070160006101000a81548160ff021916908360058111156125bc57fe5b021790555050565b82600860003373ffffffffffffffffffffffffffffffffffffffff1673ffffffffffffffffffffffffffffffffffffffff168152602001908152602001600020600001908051906020019061261a929190613824565b5081600860003373ffffffffffffffffffffffffffffffffffffffff1673ffffffffffffffffffffffffffffffffffffffff1681526020019081526020016000206002019080519060200190612671929190613824565b5080600860003373ffffffffffffffffffffffffffffffffffffffff1673ffffffffffffffffffffffffffffffffffffffff16815260200190815260200160002060030190805190602001906126c8929190613824565b506001600860003373ffffffffffffffffffffffffffffffffffffffff1673ffffffffffffffffffffffffffffffffffffffff16815260200190815260200160002060010160006101000a81548160ff021916908315150217905550505050565b6060806005805490506040519080825280602002602001820160405280156127605781602001602082028038833980820191505090505b50905060008090506000809050600090505b6005805490508110156127c4576005818154811061278c57fe5b90600052602060002001548383815181106127a357fe5b60200260200101818152505081806001019250508080600101915050612772565b82935050505090565b60008060008060608060006004600089815260200190815260200160002060000160009054906101000a900473ffffffffffffffffffffffffffffffffffffffff16600460008a815260200190815260200160002060010160009054906101000a900473ffffffffffffffffffffffffffffffffffffffff16600460008b815260200190815260200160002060020160009054906101000a900473ffffffffffffffffffffffffffffffffffffffff16600460008c815260200190815260200160002060030160009054906101000a900473ffffffffffffffffffffffffffffffffffffffff16600460008d8152602001908152602001600020600401600460008e8152602001908152602001600020600501600460008f815260200190815260200160002060070160009054906101000a900460ff16828054600181600116156101000203166002900480601f0160208091040260200160405190810160405280929190818152602001828054600181600116156101000203166002900480156129995780601f1061296e57610100808354040283529160200191612999565b820191906000526020600020905b81548152906001019060200180831161297c57829003601f168201915b50505050509250818054600181600116156101000203166002900480601f016020809104026020016040519081016040528092919081815260200182805460018160011615610100020316600290048015612a355780601f10612a0a57610100808354040283529160200191612a35565b820191906000526020600020905b815481529060010190602001808311612a1857829003601f168201915b505050505091509650965096509650965096509650919395979092949650565b606033600260008273ffffffffffffffffffffffffffffffffffffffff1673ffffffffffffffffffffffffffffffffffffffff16815260200190815260200160002060010160009054906101000a900460ff16612b1a576040517f08c379a00000000000000000000000000000000000000000000000000000000081526004018080602001828103825260168152602001807f496e737572657220646f6573206e6f742065786973740000000000000000000081525060200191505060405180910390fd5b6060600260003373ffffffffffffffffffffffffffffffffffffffff1673ffffffffffffffffffffffffffffffffffffffff16815260200190815260200160002060040154604051908082528060200260200182016040528015612b8d5781602001602082028038833980820191505090505b50905060008090506000809050600091505b600580549050821015612c73573373ffffffffffffffffffffffffffffffffffffffff166004600060058581548110612bd457fe5b9060005260206000200154815260200190815260200160002060010160009054906101000a900473ffffffffffffffffffffffffffffffffffffffff1673ffffffffffffffffffffffffffffffffffffffff161415612c665760058281548110612c3a57fe5b9060005260206000200154838281518110612c5157fe5b60200260200101818152505080806001019150505b8180600101925050612b9f565b8294505050505090565b606033600860008273ffffffffffffffffffffffffffffffffffffffff1673ffffffffffffffffffffffffffffffffffffffff16815260200190815260200160002060010160009054906101000a900460ff16612d42576040517f08c379a000000000000000000000000000000000000000000000000000000000815260040180806020018281038252601b8152602001807f496e76657374696761746f7220646f6573206e6f74206578697374000000000081525060200191505060405180910390fd5b6060600860003373ffffffffffffffffffffffffffffffffffffffff1673ffffffffffffffffffffffffffffffffffffffff16815260200190815260200160002060040154604051908082528060200260200182016040528015612db55781602001602082028038833980820191505090505b50905060008090506000809050600090505b600580549050811015612e9b573373ffffffffffffffffffffffffffffffffffffffff166004600060058481548110612dfc57fe5b9060005260206000200154815260200190815260200160002060020160009054906101000a900473ffffffffffffffffffffffffffffffffffffffff1673ffffffffffffffffffffffffffffffffffffffff161415612e8e5760058181548110612e6257fe5b9060005260206000200154838381518110612e7957fe5b60200260200101818152505081806001019250505b8080600101915050612dc7565b8294505050505090565b6000816040516020018082805190602001908083835b60208310612ede5780518252602082019150602081019050602083039250612ebb565b6001836020036101000a03801982511681845116808217855250505050505090500191505060405160208183030381529060405280519060200120836040516020018082805190602001908083835b60208310612f505780518252602082019150602081019050602083039250612f2d565b6001836020036101000a0380198251168184511680821785525050505050509050019150506040516020818303038152906040528051906020012014905092915050565b826000803373ffffffffffffffffffffffffffffffffffffffff1673ffffffffffffffffffffffffffffffffffffffff1681526020019081526020016000206000019080519060200190612fe9929190613824565b50816000803373ffffffffffffffffffffffffffffffffffffffff1673ffffffffffffffffffffffffffffffffffffffff168152602001908152602001600020600101908051906020019061303f929190613824565b50806000803373ffffffffffffffffffffffffffffffffffffffff1673ffffffffffffffffffffffffffffffffffffffff1681526020019081526020016000206002019080519060200190613095929190613824565b5060016000803373ffffffffffffffffffffffffffffffffffffffff1673ffffffffffffffffffffffffffffffffffffffff16815260200190815260200160002060030160006101000a81548160ff02191690831515021790555060013390806001815401808255809150509060018203906000526020600020016000909192909190916101000a81548173ffffffffffffffffffffffffffffffffffffffff021916908373ffffffffffffffffffffffffffffffffffffffff16021790555050505050565b606080606060006060336000808273ffffffffffffffffffffffffffffffffffffffff1673ffffffffffffffffffffffffffffffffffffffff16815260200190815260200160002060030160009054906101000a900460ff16613226576040517f08c379a00000000000000000000000000000000000000000000000000000000081526004018080602001828103825260138152602001807f486f6d6520646f6573206e6f742065786973740000000000000000000000000081525060200191505060405180910390fd5b60008060003373ffffffffffffffffffffffffffffffffffffffff1673ffffffffffffffffffffffffffffffffffffffff1681526020019081526020016000206004018054905090506000803373ffffffffffffffffffffffffffffffffffffffff1673ffffffffffffffffffffffffffffffffffffffff1681526020019081526020016000206000016000803373ffffffffffffffffffffffffffffffffffffffff1673ffffffffffffffffffffffffffffffffffffffff1681526020019081526020016000206001016000803373ffffffffffffffffffffffffffffffffffffffff1673ffffffffffffffffffffffffffffffffffffffff168152602001908152602001600020600201836000803373ffffffffffffffffffffffffffffffffffffffff1673ffffffffffffffffffffffffffffffffffffffff168152602001908152602001600020600401848054600181600116156101000203166002900480601f0160208091040260200160405190810160405280929190818152602001828054600181600116156101000203166002900480156134095780601f106133de57610100808354040283529160200191613409565b820191906000526020600020905b8154815290600101906020018083116133ec57829003601f168201915b50505050509450838054600181600116156101000203166002900480601f0160208091040260200160405190810160405280929190818152602001828054600181600116156101000203166002900480156134a55780601f1061347a576101008083540402835291602001916134a5565b820191906000526020600020905b81548152906001019060200180831161348857829003601f168201915b50505050509350828054600181600116156101000203166002900480601f0160208091040260200160405190810160405280929190818152602001828054600181600116156101000203166002900480156135415780601f1061351657610100808354040283529160200191613541565b820191906000526020600020905b81548152906001019060200180831161352457829003601f168201915b505050505092508080548060200260200160405190810160405280929190818152602001828054801561359357602002820191906000526020600020905b81548152602001906001019080831161357f575b505050505090509650965096509650965050509091929394565b82600260003373ffffffffffffffffffffffffffffffffffffffff1673ffffffffffffffffffffffffffffffffffffffff1681526020019081526020016000206000019080519060200190613603929190613824565b5081600260003373ffffffffffffffffffffffffffffffffffffffff1673ffffffffffffffffffffffffffffffffffffffff168152602001908152602001600020600201908051906020019061365a929190613824565b506001600260003373ffffffffffffffffffffffffffffffffffffffff1673ffffffffffffffffffffffffffffffffffffffff16815260200190815260200160002060010160006101000a81548160ff02191690831515021790555080600260003373ffffffffffffffffffffffffffffffffffffffff1673ffffffffffffffffffffffffffffffffffffffff168152602001908152602001600020600301908051906020019061370c929190613824565b50505050565b3373ffffffffffffffffffffffffffffffffffffffff166004600083815260200190815260200160002060030160009054906101000a900473ffffffffffffffffffffffffffffffffffffffff1673ffffffffffffffffffffffffffffffffffffffff16146137e9576040517f08c379a00000000000000000000000000000000000000000000000000000000081526004018080602001828103825260108152602001807f696e76616c69642064616d61676569640000000000000000000000000000000081525060200191505060405180910390fd5b60036004600083815260200190815260200160002060070160006101000a81548160ff0219169083600581111561381c57fe5b021790555050565b828054600181600116156101000203166002900490600052602060002090601f016020900481019282601f1061386557805160ff1916838001178555613893565b82800160010185558215613893579182015b82811115613892578251825591602001919060010190613877565b5b5090506138a091906138a4565b5090565b6138c691905b808211156138c25760008160009055506001016138aa565b5090565b9056fe596f75277265206e6f7420617574686f72697a656420746f20766965772074686973a265627a7a7231582067cb2ee7d8e04d7108b908d0cd32eea017880d89804ae3eae3891f6dea5f53d964736f6c63430005100032",
  "source": "pragma solidity >=0.4.22 <0.6.0;\n\ncontract SmartHome{\n     enum Status{Damage_noticed,Investigation, supplier_check, approval_pending,parts_replacement, resolved}\n\n       struct Home{\n        string name;\n        string contactno;\n        string homeAddress;\n        bool exist;\n        uint[] damagesArr; //store all damages of that home\n\n    }\n\n    struct Damage{\n        address home;\n        address insurer;\n        address investigator;\n        address supplier;\n        string area;\n        string device;\n        string cost;\n        Status status;\n    }\n\n    struct Insurer{\n        string name;\n        bool exist;\n        string contactno;\n      string device;\n        uint damageCount;\n    }\n\n    struct Investigator{\n        string name;\n        bool exist;\n        string contactno;\n        string device;\n        uint damageCount;\n    }\n\n    struct Supplier{\n        string device;\n        string name;\n        bool exist;\n        string contactno;\n        uint damageCount;\n    }\n\n    mapping(address => Home) homes;\n    address[] homeArr;\n\n    mapping(address => Insurer) insurers;\n    address[] insurerArr;\n\n    mapping(uint => Damage) damages;\n      uint[] damageArr;\n\n\n    //dummy\n    uint[] damageList;\n    uint damageCount=0;\n\n\n    mapping(address => Investigator ) inves; //store address and respective details\n    address[] invesArr;\n\n    mapping(address => Supplier) supp;\n    address[] suppArr;\n\n   //constructor\n  constructor() public {\n       damageCount=0;\n   }\n\nfunction compareStrings (string memory a, string memory b) public pure returns (bool) {\n        return (keccak256(abi.encodePacked((a))) == keccak256(abi.encodePacked((b))) );\n    }\n\n    //check auth of various parties\n\n    //home\n     modifier AuthorizedHome(address a){\n        require(homes[a].exist, \"Home does not exist\");\n        _;\n    }\n    //insurer\n      modifier AuthorizedInsurer(address a){\n        require(insurers[a].exist, \"Insurer does not exist\");\n        _;\n    }\n\n    //Investigator\n      modifier AuthorizedInvestigator(address a){\n        require(inves[a].exist, \"Investigator does not exist\");\n        _;\n    }\n    //supplier\n    modifier AuthorizedSuuplier(address a){\n        require(supp[a].exist, \"Supplier does not exist\");\n        _;\n    }\n\n\n\n    //add home\n       function addHome(string memory name,string memory contactno, string memory homeAddress ) public {\n        homes[msg.sender].name = name;\n        homes[msg.sender].contactno = contactno;\n        homes[msg.sender].homeAddress = homeAddress;\n        homes[msg.sender].exist=true;\n        homeArr.push(msg.sender);\n    }\n\n     //add dummy insurer\n  //  function addDummyInsurer(string memory name,string memory contactno) public{\n  //      address dummy = 0xdD870fA1b7C4700F2BD7f44238821C26f7392148;\n  //      insurers[dummy].name = name;\n  //      insurers[dummy].contactno = contactno;\n //   }\n\n\n  //add insurer\n  function addInsurer(string memory name, string memory contactno, string memory device) public{\n      insurers[msg.sender].name=name;\n      insurers[msg.sender].contactno=contactno;\n      insurers[msg.sender].exist=true;\n      insurers[msg.sender].device=device;\n   //   insurers[msg.sender].area=area;\n  }\n\n\n  //add Investigator\n    function addInvestigator(string memory name, string memory contactno, string memory device) public{\n      inves[msg.sender].name=name;\n      inves[msg.sender].contactno=contactno;\n      inves[msg.sender].device=device;\n      inves[msg.sender].exist=true;\n     //  inves[msg.sender].area=area;\n  }\n\n\n    //add Supplier\n\n    function addSupplier(string memory name, string memory contactno, string memory device) public{\n      supp[msg.sender].name=name;\n      supp[msg.sender].contactno=contactno;\n      supp[msg.sender].device=device;\n      supp[msg.sender].exist=true;\n    //  supp[msg.sender].area=area;\n  }\n\n    //add damage\n    function addDamage(address insurer, address investigator,address supplier,string memory area, string memory device) public AuthorizedHome(msg.sender)\n    AuthorizedInsurer(insurer) AuthorizedInvestigator(investigator) AuthorizedSuuplier(supplier) {\n\n\n        damageCount++;\n        uint id = damageCount;\n\n        damages[id].home = msg.sender;\n        damages[id].status = Status.Damage_noticed;\n        damages[id].insurer = insurer;\n        damages[id].investigator=investigator;\n        damages[id].supplier=supplier;\n        damages[id].area = area;\n        damages[id].device = device;\n        damages[id].cost= \"-\";\n\n        homes[msg.sender].damagesArr.push(id); //pushing to map address of home => damages of home\n\n         // increase damage count of each of the party involved\n        insurers[insurer].damageCount++;\n        inves[investigator].damageCount++;\n        supp[supplier].damageCount++;\n        damageArr.push(id);\n    }\n\n\n    //get home details\n    function getHome() public AuthorizedHome(msg.sender) view returns(string memory, string memory, string memory, uint , uint[] memory ){\n        uint total_damages=homes[msg.sender].damagesArr.length;\n        return( homes[msg.sender].name, homes[msg.sender].contactno, homes[msg.sender].homeAddress,total_damages,homes[msg.sender].damagesArr);\n    }\n\n\n  //get all damages of home owner\n  // directly through damagesArr of home -> so not required\n  //get list of all damages\n  function getAllDamage() public view returns(uint[] memory)\n  {\n      uint[] memory dam= new uint[](damageArr.length);\n\n      uint j=0;\n      uint i=0;\n\n      for(i=0;i<damageArr.length;i++)\n      {\n          dam[j]=damageArr[i];\n          j++;\n      }\n      return dam;\n  }\n\n\n    //get all the damages id of insurer\n\n    function getDamagesInsurer() public AuthorizedInsurer(msg.sender) view returns(uint[] memory){\n        uint[] memory damageBYInsurer = new uint[](insurers[msg.sender].damageCount);\n\n\n        uint i=0;\n        uint j=0;\n        for(i=0;i<damageArr.length;i++)\n        {\n            if(damages[damageArr[i]].insurer==msg.sender) //add\n            {\n                damageBYInsurer[j]=damageArr[i];\n                j++;\n            }\n        }\n        return damageBYInsurer;\n    }\n\n//get all damages of Investigator\n\nfunction getDamagesInvestigator()public AuthorizedInvestigator(msg.sender) view returns(uint[] memory)\n{\n      uint[] memory damageBYInves = new uint[](inves[msg.sender].damageCount);\n\n      uint j=0;\n      uint i=0;\n\n      for(i=0;i<damageArr.length;i++)\n      {\n          if(damages[damageArr[i]].investigator==msg.sender) //add\n          {\n              damageBYInves[j]=damageArr[i];\n              j++;\n          }\n\n\n      }\n       return damageBYInves;\n}\n\n//get all damages id for supplier\nfunction getDamagesSupplier()public AuthorizedSuuplier(msg.sender) view returns(uint[] memory)\n{\n      uint[] memory damageBYSupp = new uint[](supp[msg.sender].damageCount);\n\n      uint j=0;\n      uint i=0;\n\n      for(i=0;i<damageArr.length;i++)\n      {\n          if(damages[damageArr[i]].supplier==msg.sender) //add\n          {\n              damageBYSupp[j]=damageArr[i];\n              j++;\n          }\n\n\n      }\n       return damageBYSupp;\n}\n\n//get curr status of damage\nfunction getStatus(uint damageid) public view returns(Status)\n{\n    return (damages[damageid].status);\n}\n//return damage info given damageid\n\nfunction getDamageDetails(uint damageid) public view returns(address, address, address, address, string memory, string memory, Status)\n{\n    return (damages[damageid].home,\n             damages[damageid].insurer,\n             damages[damageid].investigator,\n             damages[damageid].supplier,\n             damages[damageid].area,\n             damages[damageid].device,\n             damages[damageid].status);\n}\n//update status to investigation\nfunction passDamagetoInves(uint damageid) public{\n    require(damages[damageid].insurer==msg.sender,\"invalid damageid\");\n\n    damages[damageid].status= Status.Investigation;\n\n}\n\n//update status to  supplier_check\n\n  function passDamagetoSupp(uint damageid) public{\n    require(damages[damageid].investigator==msg.sender,\"invalid damageid\");\n\n    damages[damageid].status= Status.supplier_check;\n\n}\n\n//update status to  approval_pending\n  function passDamagetoInsurer(uint damageid) public{\n    require(damages[damageid].supplier==msg.sender,\"invalid damageid\");\n\n    damages[damageid].status= Status.approval_pending;\n\n}\n\n//update status to parts_replacement and resolved both by insurer\n function statusUpdateInsur(uint damageid) public{\n    require(damages[damageid].insurer==msg.sender,\"invalid damageid\");\n\n    Status curr=damages[damageid].status;\n    if(curr==Status.approval_pending)\n    damages[damageid].status= Status.parts_replacement;\n    else if(curr==Status.parts_replacement)\n     damages[damageid].status= Status.resolved;\n\n}\n\n// add estimated cost by supplier\n\nfunction addCost(string memory cost,uint damageid) public {\n     require(damages[damageid].supplier==msg.sender,\"You're not authorized\");\n    damages[damageid].cost= cost;\n}\n\n//get cost\nfunction getCost(uint damageid) public view returns(string memory){\n      require(( damages[damageid].home==msg.sender)||(damages[damageid].insurer==msg.sender) ||(damages[damageid].supplier==msg.sender) ||\n      (damages[damageid].investigator==msg.sender),\"You're not authorized to view this\");\n\n      return damages[damageid].cost;\n}\n\n}",
  "sourcePath": "/Users/shri99/WebProjects/Minor_project/src/Blockchain/contracts/SmartHome.sol",
  "compiler": {
    "name": "solc",
    "version": "0.5.16+commit.9c3226ce.Emscripten.clang"
  },
  "schemaVersion": "3.3.3",
  "updatedAt": "2020-12-22T13:56:09.666Z",
  "networkType": "ethereum",
  "devdoc": {
    "methods": {}
  },
  "userdoc": {
    "methods": {}
  }
}